:10080000E4F50875A0AA12085075A0551208500505
:1008100008C3E5086480948440E9E4F50875A0CC39
:1008200012085075A0331208500508C3E50864800B
:10083000948440E9E4F508C3E5086480948450C0DA
:1008400075A0F012085075A00F120850050880E737
:040850007FC87E00DF
:10085400E4FDFCC3ED9FEC9E5018E4FBFAC3EB9F50
:10086400EA9E50070BBB00010A80F20DBD00010C8B
:0208740080E121
:01087600225F
:030000000208777C
:0C087700787FE4F6D8FD758108020800C7
:00000001FF
